{
  "_format": "hh3-artifact-1",
  "contractName": "Payments",
  "sourceName": "contracts/Payments.sol",
  "abi": [
    {
      "anonymous": false,
      "inputs": [
        {
          "indexed": true,
          "internalType": "address",
          "name": "account",
          "type": "address"
        },
        {
          "indexed": false,
          "internalType": "uint256",
          "name": "amount",
          "type": "uint256"
        }
      ],
      "name": "Deposit",
      "type": "event"
    },
    {
      "anonymous": false,
      "inputs": [
        {
          "indexed": true,
          "internalType": "address",
          "name": "account",
          "type": "address"
        },
        {
          "indexed": false,
          "internalType": "uint256",
          "name": "amount",
          "type": "uint256"
        }
      ],
      "name": "Release",
      "type": "event"
    },
    {
      "inputs": [],
      "name": "deposit",
      "outputs": [],
      "stateMutability": "payable",
      "type": "function"
    },
    {
      "inputs": [
        {
          "internalType": "address",
          "name": "account",
          "type": "address"
        }
      ],
      "name": "getBalance",
      "outputs": [
        {
          "internalType": "uint256",
          "name": "",
          "type": "uint256"
        }
      ],
      "stateMutability": "view",
      "type": "function"
    },
    {
      "inputs": [
        {
          "internalType": "uint256",
          "name": "amount",
          "type": "uint256"
        }
      ],
      "name": "release",
      "outputs": [],
      "stateMutability": "nonpayable",
      "type": "function"
    }
  ],
  "bytecode": "0x6080604052348015600e575f5ffd5b506103548061001c5f395ff3fe608060405260043610610033575f3560e01c806337bdc99b14610037578063d0e30db014610058578063f8b2cb4f14610060575b5f5ffd5b348015610042575f5ffd5b5061005661005136600461029a565b6100a6565b005b6100566101e3565b34801561006b575f5ffd5b5061009461007a3660046102b1565b6001600160a01b03165f9081526020819052604090205490565b60405190815260200160405180910390f35b5f81116101085760405162461bcd60e51b815260206004820152602560248201527f52656c6561736520616d6f756e74206d75737420626520677265617465722074604482015264068616e20360dc1b60648201526084015b60405180910390fd5b335f9081526020819052604090205481111561015d5760405162461bcd60e51b8152602060048201526014602482015273496e73756666696369656e742062616c616e636560601b60448201526064016100ff565b335f908152602081905260408120805483929061017b9084906102f2565b9091555050604051339082156108fc029083905f818181858888f193505050501580156101aa573d5f5f3e3d5ffd5b5060405181815233907ff6334794522b9db534a812aaae1af828a2e96aac68473b58e36d7d0bfd67477b9060200160405180910390a250565b5f34116102405760405162461bcd60e51b815260206004820152602560248201527f4465706f73697420616d6f756e74206d75737420626520677265617465722074604482015264068616e20360dc1b60648201526084016100ff565b335f908152602081905260408120805434929061025e90849061030b565b909155505060405134815233907fe1fffcc4923d04b559f4d29a8bfc6cda04eb5b0d3c460751c2402c5c5cc9109c9060200160405180910390a2565b5f602082840312156102aa575f5ffd5b5035919050565b5f602082840312156102c1575f5ffd5b81356001600160a01b03811681146102d7575f5ffd5b9392505050565b634e487b7160e01b5f52601160045260245ffd5b81810381811115610305576103056102de565b92915050565b80820180821115610305576103056102de56fea264697066735822122096481c2bc4fc23c6d7b0dd6734f39c9e4672665d3e851d563937e5c99001485d64736f6c634300081c0033",
  "linkReferences": {},
  "deployedLinkReferences": {},
  "immutableReferences": {},
  "inputSourceName": "project/contracts/Payments.sol",
  "buildInfoId": "solc-0_8_28-620ca1dff8dca3b13292183d3aa365ac48a96fd8"
}