{
  "_format": "hh3-artifact-1",
  "contractName": "Payments",
  "sourceName": "contracts/Payments.sol",
  "abi": [
    {
      "inputs": [],
      "stateMutability": "nonpayable",
      "type": "constructor"
    },
    {
      "anonymous": false,
      "inputs": [
        {
          "indexed": true,
          "internalType": "address",
          "name": "sender",
          "type": "address"
        },
        {
          "indexed": false,
          "internalType": "uint256",
          "name": "amount",
          "type": "uint256"
        }
      ],
      "name": "Deposit",
      "type": "event"
    },
    {
      "anonymous": false,
      "inputs": [
        {
          "indexed": true,
          "internalType": "address",
          "name": "account1",
          "type": "address"
        },
        {
          "indexed": true,
          "internalType": "address",
          "name": "account2",
          "type": "address"
        },
        {
          "indexed": false,
          "internalType": "uint256",
          "name": "amount1",
          "type": "uint256"
        },
        {
          "indexed": false,
          "internalType": "uint256",
          "name": "amount2",
          "type": "uint256"
        }
      ],
      "name": "Release",
      "type": "event"
    },
    {
      "inputs": [],
      "name": "deposit",
      "outputs": [],
      "stateMutability": "payable",
      "type": "function"
    },
    {
      "inputs": [],
      "name": "getBalance",
      "outputs": [
        {
          "internalType": "uint256",
          "name": "",
          "type": "uint256"
        }
      ],
      "stateMutability": "view",
      "type": "function"
    },
    {
      "inputs": [
        {
          "internalType": "address",
          "name": "account1",
          "type": "address"
        },
        {
          "internalType": "address",
          "name": "account2",
          "type": "address"
        }
      ],
      "name": "release",
      "outputs": [],
      "stateMutability": "nonpayable",
      "type": "function"
    }
  ],
  "bytecode": "0x6080604052348015600e575f5ffd5b505f80546001600160a01b031916331790556104378061002d5f395ff3fe608060405260043610610033575f3560e01c806312065fe01461003757806348b7504414610056578063d0e30db014610077575b5f5ffd5b348015610042575f5ffd5b504760405190815260200160405180910390f35b348015610061575f5ffd5b5061007561007036600461036d565b61007f565b005b6100756102be565b5f546001600160a01b031633146100dd5760405162461bcd60e51b815260206004820152601c60248201527f4f6e6c79206f776e65722063616e2072656c656173652066756e64730000000060448201526064015b60405180910390fd5b5f47116101245760405162461bcd60e51b81526020600482015260156024820152744e6f2062616c616e636520746f2072656c6561736560581b60448201526064016100d4565b6001600160a01b03821661017a5760405162461bcd60e51b815260206004820152601f60248201527f4163636f756e74312063616e6e6f74206265207a65726f20616464726573730060448201526064016100d4565b6001600160a01b0381166101d05760405162461bcd60e51b815260206004820152601f60248201527f4163636f756e74322063616e6e6f74206265207a65726f20616464726573730060448201526064016100d4565b475f60646101df8360506103b2565b6101e991906103cf565b90505f6101f682846103ee565b6040519091506001600160a01b0386169083156108fc029084905f818181858888f1935050505015801561022c573d5f5f3e3d5ffd5b506040516001600160a01b0385169082156108fc029083905f818181858888f19350505050158015610260573d5f5f3e3d5ffd5b50836001600160a01b0316856001600160a01b03167f10b55f01b1cfe0feeb7d144f66162661602d8e73256499b6d8342aac37ff067984846040516102af929190918252602082015260400190565b60405180910390a35050505050565b5f341161031b5760405162461bcd60e51b815260206004820152602560248201527f4465706f73697420616d6f756e74206d75737420626520677265617465722074604482015264068616e20360dc1b60648201526084016100d4565b60405134815233907fe1fffcc4923d04b559f4d29a8bfc6cda04eb5b0d3c460751c2402c5c5cc9109c9060200160405180910390a2565b80356001600160a01b0381168114610368575f5ffd5b919050565b5f5f6040838503121561037e575f5ffd5b61038783610352565b915061039560208401610352565b90509250929050565b634e487b7160e01b5f52601160045260245ffd5b80820281158282048414176103c9576103c961039e565b92915050565b5f826103e957634e487b7160e01b5f52601260045260245ffd5b500490565b818103818111156103c9576103c961039e56fea26469706673582212207b88e8de554cfa07cc2405a6e793d361abde439c965cea7ce3154ec3b253647564736f6c634300081c0033",
  "linkReferences": {},
  "deployedLinkReferences": {},
  "immutableReferences": {},
  "inputSourceName": "project/contracts/Payments.sol",
  "buildInfoId": "solc-0_8_28-3f3a171c05aae8884c3d78481617c9f4f0b8ba4f"
}