{
  "_format": "hh3-artifact-1",
  "contractName": "ProductContract",
  "sourceName": "contracts/Product.sol",
  "abi": [
    {
      "inputs": [
        {
          "internalType": "address[]",
          "name": "_owners",
          "type": "address[]"
        },
        {
          "internalType": "address[]",
          "name": "_payees",
          "type": "address[]"
        },
        {
          "internalType": "uint256[]",
          "name": "_shares",
          "type": "uint256[]"
        }
      ],
      "stateMutability": "nonpayable",
      "type": "constructor"
    },
    {
      "anonymous": false,
      "inputs": [
        {
          "indexed": true,
          "internalType": "address",
          "name": "sender",
          "type": "address"
        },
        {
          "indexed": false,
          "internalType": "uint256",
          "name": "amount",
          "type": "uint256"
        }
      ],
      "name": "Deposit",
      "type": "event"
    },
    {
      "anonymous": false,
      "inputs": [
        {
          "indexed": true,
          "internalType": "address",
          "name": "payee",
          "type": "address"
        },
        {
          "indexed": false,
          "internalType": "uint256",
          "name": "amount",
          "type": "uint256"
        }
      ],
      "name": "PaymentReleased",
      "type": "event"
    },
    {
      "anonymous": false,
      "inputs": [
        {
          "indexed": false,
          "internalType": "uint256",
          "name": "id",
          "type": "uint256"
        },
        {
          "indexed": false,
          "internalType": "string",
          "name": "name",
          "type": "string"
        },
        {
          "indexed": false,
          "internalType": "uint256",
          "name": "price",
          "type": "uint256"
        },
        {
          "indexed": false,
          "internalType": "address",
          "name": "seller",
          "type": "address"
        }
      ],
      "name": "ProductAdded",
      "type": "event"
    },
    {
      "anonymous": false,
      "inputs": [
        {
          "indexed": false,
          "internalType": "uint256",
          "name": "id",
          "type": "uint256"
        },
        {
          "indexed": false,
          "internalType": "address",
          "name": "buyer",
          "type": "address"
        },
        {
          "indexed": false,
          "internalType": "uint256",
          "name": "price",
          "type": "uint256"
        }
      ],
      "name": "ProductPurchased",
      "type": "event"
    },
    {
      "inputs": [
        {
          "internalType": "string",
          "name": "_name",
          "type": "string"
        },
        {
          "internalType": "uint256",
          "name": "_price",
          "type": "uint256"
        }
      ],
      "name": "addProduct",
      "outputs": [],
      "stateMutability": "nonpayable",
      "type": "function"
    },
    {
      "inputs": [
        {
          "internalType": "uint256",
          "name": "_productId",
          "type": "uint256"
        }
      ],
      "name": "buyProduct",
      "outputs": [],
      "stateMutability": "payable",
      "type": "function"
    },
    {
      "inputs": [
        {
          "internalType": "uint256",
          "name": "_productId",
          "type": "uint256"
        }
      ],
      "name": "disableProduct",
      "outputs": [],
      "stateMutability": "nonpayable",
      "type": "function"
    },
    {
      "inputs": [],
      "name": "getAllProducts",
      "outputs": [
        {
          "components": [
            {
              "internalType": "uint256",
              "name": "id",
              "type": "uint256"
            },
            {
              "internalType": "string",
              "name": "name",
              "type": "string"
            },
            {
              "internalType": "uint256",
              "name": "price",
              "type": "uint256"
            },
            {
              "internalType": "address",
              "name": "seller",
              "type": "address"
            },
            {
              "internalType": "bool",
              "name": "active",
              "type": "bool"
            }
          ],
          "internalType": "struct ProductContract.Product[]",
          "name": "",
          "type": "tuple[]"
        }
      ],
      "stateMutability": "view",
      "type": "function"
    },
    {
      "inputs": [],
      "name": "getBalance",
      "outputs": [
        {
          "internalType": "uint256",
          "name": "",
          "type": "uint256"
        }
      ],
      "stateMutability": "view",
      "type": "function"
    },
    {
      "inputs": [
        {
          "internalType": "address",
          "name": "_user",
          "type": "address"
        }
      ],
      "name": "getUserPurchases",
      "outputs": [
        {
          "internalType": "uint256[]",
          "name": "",
          "type": "uint256[]"
        }
      ],
      "stateMutability": "view",
      "type": "function"
    },
    {
      "inputs": [
        {
          "internalType": "address",
          "name": "",
          "type": "address"
        }
      ],
      "name": "isOwner",
      "outputs": [
        {
          "internalType": "bool",
          "name": "",
          "type": "bool"
        }
      ],
      "stateMutability": "view",
      "type": "function"
    },
    {
      "inputs": [],
      "name": "nextProductId",
      "outputs": [
        {
          "internalType": "uint256",
          "name": "",
          "type": "uint256"
        }
      ],
      "stateMutability": "view",
      "type": "function"
    },
    {
      "inputs": [
        {
          "internalType": "uint256",
          "name": "",
          "type": "uint256"
        }
      ],
      "name": "owners",
      "outputs": [
        {
          "internalType": "address",
          "name": "",
          "type": "address"
        }
      ],
      "stateMutability": "view",
      "type": "function"
    },
    {
      "inputs": [
        {
          "internalType": "uint256",
          "name": "",
          "type": "uint256"
        }
      ],
      "name": "payees",
      "outputs": [
        {
          "internalType": "address",
          "name": "",
          "type": "address"
        }
      ],
      "stateMutability": "view",
      "type": "function"
    },
    {
      "inputs": [
        {
          "internalType": "uint256",
          "name": "",
          "type": "uint256"
        }
      ],
      "name": "products",
      "outputs": [
        {
          "internalType": "uint256",
          "name": "id",
          "type": "uint256"
        },
        {
          "internalType": "string",
          "name": "name",
          "type": "string"
        },
        {
          "internalType": "uint256",
          "name": "price",
          "type": "uint256"
        },
        {
          "internalType": "address",
          "name": "seller",
          "type": "address"
        },
        {
          "internalType": "bool",
          "name": "active",
          "type": "bool"
        }
      ],
      "stateMutability": "view",
      "type": "function"
    },
    {
      "inputs": [
        {
          "internalType": "address",
          "name": "",
          "type": "address"
        },
        {
          "internalType": "uint256",
          "name": "",
          "type": "uint256"
        }
      ],
      "name": "purchases",
      "outputs": [
        {
          "internalType": "uint256",
          "name": "",
          "type": "uint256"
        }
      ],
      "stateMutability": "view",
      "type": "function"
    },
    {
      "inputs": [],
      "name": "releasePayments",
      "outputs": [],
      "stateMutability": "nonpayable",
      "type": "function"
    },
    {
      "inputs": [
        {
          "internalType": "address",
          "name": "",
          "type": "address"
        }
      ],
      "name": "shares",
      "outputs": [
        {
          "internalType": "uint256",
          "name": "",
          "type": "uint256"
        }
      ],
      "stateMutability": "view",
      "type": "function"
    },
    {
      "inputs": [],
      "name": "totalShares",
      "outputs": [
        {
          "internalType": "uint256",
          "name": "",
          "type": "uint256"
        }
      ],
      "stateMutability": "view",
      "type": "function"
    }
  ],
  "bytecode": "0x608060405234801561000f575f5ffd5b5060405161168438038061168483398101604081905261002e916104d7565b600160085582516100795760405162461bcd60e51b815260206004820152601060248201526f4d7573742068617665206f776e65727360801b60448201526064015b60405180910390fd5b5f5b83518110156101b7575f848281518110610097576100976105bf565b602002602001015190505f6001600160a01b0316816001600160a01b0316036100f45760405162461bcd60e51b815260206004820152600f60248201526e496e76616c6964204164647265737360881b6044820152606401610070565b6001600160a01b0381165f9081526001602052604090205460ff161561014f5760405162461bcd60e51b815260206004820152601060248201526f4f776e6572206e6f7420756e6971756560801b6044820152606401610070565b6001600160a01b03165f8181526001602081905260408220805460ff191682179055815480820183559180527f290decd9548b62a8d60345a988386fc84ba6bc95484008f6362f93160ef3e56390910180546001600160a01b0319169092179091550161007b565b5080518251146101fb5760405162461bcd60e51b815260206004820152600f60248201526e098cadccee8d040dad2e6dac2e8c6d608b1b6044820152606401610070565b5f8251116102375760405162461bcd60e51b81526020600482015260096024820152684e6f2070617965657360b81b6044820152606401610070565b5f5b82518110156103ea575f6001600160a01b031683828151811061025e5761025e6105bf565b60200260200101516001600160a01b0316036102ae5760405162461bcd60e51b815260206004820152600f60248201526e696e76616c6964206164647265737360881b6044820152606401610070565b5f8282815181106102c1576102c16105bf565b6020026020010151116103095760405162461bcd60e51b815260206004820152601060248201526f0736861726573206d7573742062653e360841b6044820152606401610070565b600583828151811061031d5761031d6105bf565b60209081029190910181015182546001810184555f938452919092200180546001600160a01b0319166001600160a01b03909216919091179055815182908290811061036b5761036b6105bf565b602002602001015160065f858481518110610388576103886105bf565b60200260200101516001600160a01b03166001600160a01b031681526020019081526020015f20819055508181815181106103c5576103c56105bf565b602002602001015160075f8282546103dd91906105d3565b9091555050600101610239565b505050506105f8565b634e487b7160e01b5f52604160045260245ffd5b604051601f8201601f191681016001600160401b038111828210171561042f5761042f6103f3565b604052919050565b5f6001600160401b0382111561044f5761044f6103f3565b5060051b60200190565b5f82601f830112610468575f5ffd5b815161047b61047682610437565b610407565b8082825260208201915060208360051b86010192508583111561049c575f5ffd5b602085015b838110156104cd5780516001600160a01b03811681146104bf575f5ffd5b8352602092830192016104a1565b5095945050505050565b5f5f5f606084860312156104e9575f5ffd5b83516001600160401b038111156104fe575f5ffd5b61050a86828701610459565b602086015190945090506001600160401b03811115610527575f5ffd5b61053386828701610459565b604086015190935090506001600160401b03811115610550575f5ffd5b8401601f81018613610560575f5ffd5b805161056e61047682610437565b8082825260208201915060208360051b85010192508883111561058f575f5ffd5b6020840193505b828410156105b1578351825260209384019390910190610596565b809450505050509250925092565b634e487b7160e01b5f52603260045260245ffd5b808201808211156105f257634e487b7160e01b5f52601160045260245ffd5b92915050565b61107f806106055f395ff3fe6080604052600436106100e4575f3560e01c806354e4b5c211610087578063ada403a311610057578063ada403a31461026b578063b15247d91461027f578063c6e5d8f61461029e578063ce7c2ac2146102ca575f5ffd5b806354e4b5c2146101e857806363037b0c146102095780637acc0b20146102285780638642269e14610258575f5ffd5b80632f54bf6e116100c25780632f54bf6e146101615780633a98ef391461019f5780634de91a63146101b457806352d3f849146101c9575f5ffd5b8063025e7c27146100e857806302ee3a521461012457806312065fe014610145575b5f5ffd5b3480156100f3575f5ffd5b50610107610102366004610bc5565b6102f5565b6040516001600160a01b0390911681526020015b60405180910390f35b34801561012f575f5ffd5b5061013861031c565b60405161011b9190610c0a565b348015610150575f5ffd5b50475b60405190815260200161011b565b34801561016c575f5ffd5b5061018f61017b366004610cc8565b60016020525f908152604090205460ff1681565b604051901515815260200161011b565b3480156101aa575f5ffd5b5061015360075481565b3480156101bf575f5ffd5b5061015360025481565b3480156101d4575f5ffd5b506101536101e3366004610ce8565b6104c5565b3480156101f3575f5ffd5b50610207610202366004610bc5565b6104f0565b005b348015610214575f5ffd5b50610107610223366004610bc5565b610560565b348015610233575f5ffd5b50610247610242366004610bc5565b61056f565b60405161011b959493929190610d10565b610207610266366004610bc5565b610632565b348015610276575f5ffd5b506102076107e8565b34801561028a575f5ffd5b50610207610299366004610d64565b6109d3565b3480156102a9575f5ffd5b506102bd6102b8366004610cc8565b610b5c565b60405161011b9190610e19565b3480156102d5575f5ffd5b506101536102e4366004610cc8565b60066020525f908152604090205481565b5f8181548110610303575f80fd5b5f918252602090912001546001600160a01b0316905081565b60605f60025467ffffffffffffffff81111561033a5761033a610d50565b6040519080825280602002602001820160405280156103a457816020015b6103916040518060a001604052805f8152602001606081526020015f81526020015f6001600160a01b031681526020015f151581525090565b8152602001906001900390816103585790505b5090505f5b6002548110156104bf5760035f8281526020019081526020015f206040518060a00160405290815f82015481526020016001820180546103e890610e5b565b80601f016020809104026020016040519081016040528092919081815260200182805461041490610e5b565b801561045f5780601f106104365761010080835404028352916020019161045f565b820191905f5260205f20905b81548152906001019060200180831161044257829003601f168201915b5050509183525050600282015460208201526003909101546001600160a01b0381166040830152600160a01b900460ff16151560609091015282518390839081106104ac576104ac610e8d565b60209081029190910101526001016103a9565b50919050565b6004602052815f5260405f2081815481106104de575f80fd5b905f5260205f20015f91509150505481565b335f9081526001602052604090205460ff166105425760405162461bcd60e51b815260206004820152600c60248201526b2737ba1030b71037bbb732b960a11b60448201526064015b60405180910390fd5b5f90815260036020819052604090912001805460ff60a01b19169055565b60058181548110610303575f80fd5b60036020525f90815260409020805460018201805491929161059090610e5b565b80601f01602080910402602001604051908101604052809291908181526020018280546105bc90610e5b565b80156106075780601f106105de57610100808354040283529160200191610607565b820191905f5260205f20905b8154815290600101906020018083116105ea57829003601f168201915b5050505060028301546003909301549192916001600160a01b0381169150600160a01b900460ff1685565b6008546002036106845760405162461bcd60e51b815260206004820152601f60248201527f5265656e7472616e63792047756172643a5265656e7472616e742063616c6c006044820152606401610539565b60026008555f81815260036020819052604090912090810154600160a01b900460ff166106ec5760405162461bcd60e51b815260206004820152601660248201527550726f647563746f206e6f20646973706f6e69626c6560501b6044820152606401610539565b806002015434146107325760405162461bcd60e51b815260206004820152601060248201526f4d6f6e746f20696e636f72726563746f60801b6044820152606401610539565b60405134815233907fe1fffcc4923d04b559f4d29a8bfc6cda04eb5b0d3c460751c2402c5c5cc9109c9060200160405180910390a2335f81815260046020908152604080832080546001810182559084529190922001849055600283015490517fa530f889d7f1bd9a73028e48944ca013ab2c6624a31e3fa26f923f4bb719abd5926107d7928683526001600160a01b03919091166020830152604082015260600190565b60405180910390a150506001600855565b60085460020361083a5760405162461bcd60e51b815260206004820152601f60248201527f5265656e7472616e63792047756172643a5265656e7472616e742063616c6c006044820152606401610539565b600260085547806108835760405162461bcd60e51b81526020600482015260136024820152724e6f2066756e647320746f2072656c6561736560681b6044820152606401610539565b5f5b6005548110156109ca575f600582815481106108a3576108a3610e8d565b5f9182526020808320909101546007546001600160a01b0390911680845260069092526040832054919350906108d99086610eb5565b6108e39190610ed2565b905080156109c0575f826001600160a01b0316826040515f6040518083038185875af1925050503d805f8114610934576040519150601f19603f3d011682016040523d82523d5f602084013e610939565b606091505b505090508061097b5760405162461bcd60e51b815260206004820152600e60248201526d14185e5b595b9d0819985a5b195960921b6044820152606401610539565b826001600160a01b03167fdf20fd1e76bc69d672e4814fafb2c449bba3a5369d8359adf9e05e6fde87b056836040516109b691815260200190565b60405180910390a2505b5050600101610885565b50506001600855565b335f9081526001602052604090205460ff16610a205760405162461bcd60e51b815260206004820152600c60248201526b2737ba1030b71037bbb732b960a11b6044820152606401610539565b5f8111610a6f5760405162461bcd60e51b815260206004820152601c60248201527f456c2070726563696f206465626520736572206d61796f7220612030000000006044820152606401610539565b600280545f9182610a7f83610ef1565b909155506040805160a08101825282815260208082018781528284018790523360608401526001608084018190525f86815260039093529390912082518155905193945090929091820190610ad49082610f55565b5060408281015160028301556060830151600390920180546080909401511515600160a01b026001600160a81b03199094166001600160a01b0390931692909217929092179055517f52402cafb2ecec722b103e8f203f83362148c168659dc96678c2c6850d12dd9f90610b4f908390869086903390611010565b60405180910390a1505050565b6001600160a01b0381165f90815260046020908152604091829020805483518184028101840190945280845260609392830182828015610bb957602002820191905f5260205f20905b815481526020019060010190808311610ba5575b50505050509050919050565b5f60208284031215610bd5575f5ffd5b5035919050565b5f81518084528060208401602086015e5f602082860101526020601f19601f83011685010191505092915050565b5f602082016020835280845180835260408501915060408160051b8601019250602086015f5b82811015610ca157603f19878603018452815180518652602081015160a06020880152610c6060a0880182610bdc565b604083810151908901526060808401516001600160a01b03169089015260809283015115159290970191909152506020938401939190910190600101610c30565b50929695505050505050565b80356001600160a01b0381168114610cc3575f5ffd5b919050565b5f60208284031215610cd8575f5ffd5b610ce182610cad565b9392505050565b5f5f60408385031215610cf9575f5ffd5b610d0283610cad565b946020939093013593505050565b85815260a060208201525f610d2860a0830187610bdc565b6040830195909552506001600160a01b03929092166060830152151560809091015292915050565b634e487b7160e01b5f52604160045260245ffd5b5f5f60408385031215610d75575f5ffd5b823567ffffffffffffffff811115610d8b575f5ffd5b8301601f81018513610d9b575f5ffd5b803567ffffffffffffffff811115610db557610db5610d50565b604051601f8201601f19908116603f0116810167ffffffffffffffff81118282101715610de457610de4610d50565b604052818152828201602001871015610dfb575f5ffd5b816020840160208301375f6020928201830152969401359450505050565b602080825282518282018190525f918401906040840190835b81811015610e50578351835260209384019390920191600101610e32565b509095945050505050565b600181811c90821680610e6f57607f821691505b6020821081036104bf57634e487b7160e01b5f52602260045260245ffd5b634e487b7160e01b5f52603260045260245ffd5b634e487b7160e01b5f52601160045260245ffd5b8082028115828204841417610ecc57610ecc610ea1565b92915050565b5f82610eec57634e487b7160e01b5f52601260045260245ffd5b500490565b5f60018201610f0257610f02610ea1565b5060010190565b601f821115610f5057805f5260205f20601f840160051c81016020851015610f2e5750805b601f840160051c820191505b81811015610f4d575f8155600101610f3a565b50505b505050565b815167ffffffffffffffff811115610f6f57610f6f610d50565b610f8381610f7d8454610e5b565b84610f09565b6020601f821160018114610fb5575f8315610f9e5750848201515b5f19600385901b1c1916600184901b178455610f4d565b5f84815260208120601f198516915b82811015610fe45787850151825560209485019460019092019101610fc4565b508482101561100157868401515f19600387901b60f8161c191681555b50505050600190811b01905550565b848152608060208201525f6110286080830186610bdc565b6040830194909452506001600160a01b03919091166060909101529291505056fea264697066735822122002554519cb3deda688a4a79ce13b3a201517a6687088267c83e1652ebc08bb3164736f6c634300081c0033",
  "linkReferences": {},
  "deployedLinkReferences": {},
  "immutableReferences": {},
  "inputSourceName": "project/contracts/Product.sol",
  "buildInfoId": "solc-0_8_28-04c9e7fec72aab1f13a2cc31b00b24a7b403c348"
}