{
  "_format": "hh3-artifact-1",
  "contractName": "ProductContract",
  "sourceName": "contracts/Product.sol",
  "abi": [
    {
      "inputs": [
        {
          "internalType": "address[]",
          "name": "_owners",
          "type": "address[]"
        },
        {
          "internalType": "address[]",
          "name": "_payees",
          "type": "address[]"
        },
        {
          "internalType": "uint256[]",
          "name": "_shares",
          "type": "uint256[]"
        }
      ],
      "stateMutability": "nonpayable",
      "type": "constructor"
    },
    {
      "anonymous": false,
      "inputs": [
        {
          "indexed": true,
          "internalType": "address",
          "name": "sender",
          "type": "address"
        },
        {
          "indexed": false,
          "internalType": "uint256",
          "name": "amount",
          "type": "uint256"
        }
      ],
      "name": "Deposit",
      "type": "event"
    },
    {
      "anonymous": false,
      "inputs": [
        {
          "indexed": true,
          "internalType": "address",
          "name": "payee",
          "type": "address"
        },
        {
          "indexed": false,
          "internalType": "uint256",
          "name": "amount",
          "type": "uint256"
        }
      ],
      "name": "PaymentReleased",
      "type": "event"
    },
    {
      "anonymous": false,
      "inputs": [
        {
          "indexed": false,
          "internalType": "uint256",
          "name": "id",
          "type": "uint256"
        },
        {
          "indexed": false,
          "internalType": "string",
          "name": "name",
          "type": "string"
        },
        {
          "indexed": false,
          "internalType": "uint256",
          "name": "price",
          "type": "uint256"
        },
        {
          "indexed": false,
          "internalType": "address",
          "name": "seller",
          "type": "address"
        }
      ],
      "name": "ProductAdded",
      "type": "event"
    },
    {
      "anonymous": false,
      "inputs": [
        {
          "indexed": false,
          "internalType": "uint256",
          "name": "id",
          "type": "uint256"
        },
        {
          "indexed": false,
          "internalType": "address",
          "name": "buyer",
          "type": "address"
        },
        {
          "indexed": false,
          "internalType": "uint256",
          "name": "price",
          "type": "uint256"
        }
      ],
      "name": "ProductPurchased",
      "type": "event"
    },
    {
      "inputs": [
        {
          "internalType": "string",
          "name": "_name",
          "type": "string"
        },
        {
          "internalType": "uint256",
          "name": "_price",
          "type": "uint256"
        }
      ],
      "name": "addProduct",
      "outputs": [],
      "stateMutability": "nonpayable",
      "type": "function"
    },
    {
      "inputs": [
        {
          "internalType": "uint256",
          "name": "_productId",
          "type": "uint256"
        }
      ],
      "name": "buyProduct",
      "outputs": [],
      "stateMutability": "payable",
      "type": "function"
    },
    {
      "inputs": [
        {
          "internalType": "uint256",
          "name": "_productId",
          "type": "uint256"
        },
        {
          "internalType": "string",
          "name": "_name",
          "type": "string"
        },
        {
          "internalType": "uint256",
          "name": "_price",
          "type": "uint256"
        },
        {
          "internalType": "bool",
          "name": "_active",
          "type": "bool"
        }
      ],
      "name": "editProduct",
      "outputs": [],
      "stateMutability": "nonpayable",
      "type": "function"
    },
    {
      "inputs": [],
      "name": "getAllProducts",
      "outputs": [
        {
          "components": [
            {
              "internalType": "uint256",
              "name": "id",
              "type": "uint256"
            },
            {
              "internalType": "string",
              "name": "name",
              "type": "string"
            },
            {
              "internalType": "uint256",
              "name": "price",
              "type": "uint256"
            },
            {
              "internalType": "address",
              "name": "seller",
              "type": "address"
            },
            {
              "internalType": "bool",
              "name": "active",
              "type": "bool"
            }
          ],
          "internalType": "struct ProductContract.Product[]",
          "name": "",
          "type": "tuple[]"
        }
      ],
      "stateMutability": "view",
      "type": "function"
    },
    {
      "inputs": [],
      "name": "getBalance",
      "outputs": [
        {
          "internalType": "uint256",
          "name": "",
          "type": "uint256"
        }
      ],
      "stateMutability": "view",
      "type": "function"
    },
    {
      "inputs": [
        {
          "internalType": "address",
          "name": "_user",
          "type": "address"
        }
      ],
      "name": "getUserPurchases",
      "outputs": [
        {
          "internalType": "uint256[]",
          "name": "",
          "type": "uint256[]"
        }
      ],
      "stateMutability": "view",
      "type": "function"
    },
    {
      "inputs": [
        {
          "internalType": "address",
          "name": "",
          "type": "address"
        }
      ],
      "name": "isOwner",
      "outputs": [
        {
          "internalType": "bool",
          "name": "",
          "type": "bool"
        }
      ],
      "stateMutability": "view",
      "type": "function"
    },
    {
      "inputs": [],
      "name": "nextProductId",
      "outputs": [
        {
          "internalType": "uint256",
          "name": "",
          "type": "uint256"
        }
      ],
      "stateMutability": "view",
      "type": "function"
    },
    {
      "inputs": [
        {
          "internalType": "uint256",
          "name": "",
          "type": "uint256"
        }
      ],
      "name": "owners",
      "outputs": [
        {
          "internalType": "address",
          "name": "",
          "type": "address"
        }
      ],
      "stateMutability": "view",
      "type": "function"
    },
    {
      "inputs": [
        {
          "internalType": "uint256",
          "name": "",
          "type": "uint256"
        }
      ],
      "name": "payees",
      "outputs": [
        {
          "internalType": "address",
          "name": "",
          "type": "address"
        }
      ],
      "stateMutability": "view",
      "type": "function"
    },
    {
      "inputs": [
        {
          "internalType": "uint256",
          "name": "",
          "type": "uint256"
        }
      ],
      "name": "products",
      "outputs": [
        {
          "internalType": "uint256",
          "name": "id",
          "type": "uint256"
        },
        {
          "internalType": "string",
          "name": "name",
          "type": "string"
        },
        {
          "internalType": "uint256",
          "name": "price",
          "type": "uint256"
        },
        {
          "internalType": "address",
          "name": "seller",
          "type": "address"
        },
        {
          "internalType": "bool",
          "name": "active",
          "type": "bool"
        }
      ],
      "stateMutability": "view",
      "type": "function"
    },
    {
      "inputs": [
        {
          "internalType": "address",
          "name": "",
          "type": "address"
        },
        {
          "internalType": "uint256",
          "name": "",
          "type": "uint256"
        }
      ],
      "name": "purchases",
      "outputs": [
        {
          "internalType": "uint256",
          "name": "",
          "type": "uint256"
        }
      ],
      "stateMutability": "view",
      "type": "function"
    },
    {
      "inputs": [
        {
          "internalType": "uint256[]",
          "name": "_percentages",
          "type": "uint256[]"
        }
      ],
      "name": "releasePayments",
      "outputs": [],
      "stateMutability": "nonpayable",
      "type": "function"
    },
    {
      "inputs": [
        {
          "internalType": "address",
          "name": "",
          "type": "address"
        }
      ],
      "name": "shares",
      "outputs": [
        {
          "internalType": "uint256",
          "name": "",
          "type": "uint256"
        }
      ],
      "stateMutability": "view",
      "type": "function"
    },
    {
      "inputs": [],
      "name": "totalShares",
      "outputs": [
        {
          "internalType": "uint256",
          "name": "",
          "type": "uint256"
        }
      ],
      "stateMutability": "view",
      "type": "function"
    }
  ],
  "bytecode": "0x608060405234801561000f575f5ffd5b506040516119c23803806119c283398101604081905261002e916104d7565b600160085582516100795760405162461bcd60e51b815260206004820152601060248201526f4d7573742068617665206f776e65727360801b60448201526064015b60405180910390fd5b5f5b83518110156101b7575f848281518110610097576100976105bf565b602002602001015190505f6001600160a01b0316816001600160a01b0316036100f45760405162461bcd60e51b815260206004820152600f60248201526e496e76616c6964204164647265737360881b6044820152606401610070565b6001600160a01b0381165f9081526001602052604090205460ff161561014f5760405162461bcd60e51b815260206004820152601060248201526f4f776e6572206e6f7420756e6971756560801b6044820152606401610070565b6001600160a01b03165f8181526001602081905260408220805460ff191682179055815480820183559180527f290decd9548b62a8d60345a988386fc84ba6bc95484008f6362f93160ef3e56390910180546001600160a01b0319169092179091550161007b565b5080518251146101fb5760405162461bcd60e51b815260206004820152600f60248201526e098cadccee8d040dad2e6dac2e8c6d608b1b6044820152606401610070565b5f8251116102375760405162461bcd60e51b81526020600482015260096024820152684e6f2070617965657360b81b6044820152606401610070565b5f5b82518110156103ea575f6001600160a01b031683828151811061025e5761025e6105bf565b60200260200101516001600160a01b0316036102ae5760405162461bcd60e51b815260206004820152600f60248201526e696e76616c6964206164647265737360881b6044820152606401610070565b5f8282815181106102c1576102c16105bf565b6020026020010151116103095760405162461bcd60e51b815260206004820152601060248201526f0736861726573206d7573742062653e360841b6044820152606401610070565b600583828151811061031d5761031d6105bf565b60209081029190910181015182546001810184555f938452919092200180546001600160a01b0319166001600160a01b03909216919091179055815182908290811061036b5761036b6105bf565b602002602001015160065f858481518110610388576103886105bf565b60200260200101516001600160a01b03166001600160a01b031681526020019081526020015f20819055508181815181106103c5576103c56105bf565b602002602001015160075f8282546103dd91906105d3565b9091555050600101610239565b505050506105f8565b634e487b7160e01b5f52604160045260245ffd5b604051601f8201601f191681016001600160401b038111828210171561042f5761042f6103f3565b604052919050565b5f6001600160401b0382111561044f5761044f6103f3565b5060051b60200190565b5f82601f830112610468575f5ffd5b815161047b61047682610437565b610407565b8082825260208201915060208360051b86010192508583111561049c575f5ffd5b602085015b838110156104cd5780516001600160a01b03811681146104bf575f5ffd5b8352602092830192016104a1565b5095945050505050565b5f5f5f606084860312156104e9575f5ffd5b83516001600160401b038111156104fe575f5ffd5b61050a86828701610459565b602086015190945090506001600160401b03811115610527575f5ffd5b61053386828701610459565b604086015190935090506001600160401b03811115610550575f5ffd5b8401601f81018613610560575f5ffd5b805161056e61047682610437565b8082825260208201915060208360051b85010192508883111561058f575f5ffd5b6020840193505b828410156105b1578351825260209384019390910190610596565b809450505050509250925092565b634e487b7160e01b5f52603260045260245ffd5b808201808211156105f257634e487b7160e01b5f52601160045260245ffd5b92915050565b6113bd806106055f395ff3fe6080604052600436106100e4575f3560e01c806352d3f849116100875780638642269e116100575780638642269e14610277578063b15247d91461028a578063c6e5d8f6146102a9578063ce7c2ac2146102d5575f5ffd5b806352d3f849146101ea578063598d5c911461020957806363037b0c146102285780637acc0b2014610247575f5ffd5b806312bd566e116100c257806312bd566e146101615780632f54bf6e146101825780633a98ef39146101c05780634de91a63146101d5575f5ffd5b8063025e7c27146100e857806302ee3a521461012457806312065fe014610145575b5f5ffd5b3480156100f3575f5ffd5b50610107610102366004610db7565b610300565b6040516001600160a01b0390911681526020015b60405180910390f35b34801561012f575f5ffd5b50610138610327565b60405161011b9190610dfc565b348015610150575f5ffd5b50475b60405190815260200161011b565b34801561016c575f5ffd5b5061018061017b366004610ee4565b6104d0565b005b34801561018d575f5ffd5b506101b061019c366004610fab565b60016020525f908152604090205460ff1681565b604051901515815260200161011b565b3480156101cb575f5ffd5b5061015360075481565b3480156101e0575f5ffd5b5061015360025481565b3480156101f5575f5ffd5b50610153610204366004610fcb565b6107ab565b348015610214575f5ffd5b5061018061022336600461105f565b6107d6565b348015610233575f5ffd5b50610107610242366004610db7565b61093d565b348015610252575f5ffd5b50610266610261366004610db7565b61094c565b60405161011b9594939291906110c2565b610180610285366004610db7565b610a0f565b348015610295575f5ffd5b506101806102a4366004611102565b610bc5565b3480156102b4575f5ffd5b506102c86102c3366004610fab565b610d4e565b60405161011b9190611144565b3480156102e0575f5ffd5b506101536102ef366004610fab565b60066020525f908152604090205481565b5f818154811061030e575f80fd5b5f918252602090912001546001600160a01b0316905081565b60605f60025467ffffffffffffffff81111561034557610345610e9f565b6040519080825280602002602001820160405280156103af57816020015b61039c6040518060a001604052805f8152602001606081526020015f81526020015f6001600160a01b031681526020015f151581525090565b8152602001906001900390816103635790505b5090505f5b6002548110156104ca5760035f8281526020019081526020015f206040518060a00160405290815f82015481526020016001820180546103f390611186565b80601f016020809104026020016040519081016040528092919081815260200182805461041f90611186565b801561046a5780601f106104415761010080835404028352916020019161046a565b820191905f5260205f20905b81548152906001019060200180831161044d57829003601f168201915b5050509183525050600282015460208201526003909101546001600160a01b0381166040830152600160a01b900460ff16151560609091015282518390839081106104b7576104b76111b8565b60209081029190910101526001016103b4565b50919050565b6008546002036105275760405162461bcd60e51b815260206004820152601f60248201527f5265656e7472616e63792047756172643a5265656e7472616e742063616c6c0060448201526064015b60405180910390fd5b600260085560055481511461057e5760405162461bcd60e51b815260206004820152601b60248201527f50657263656e7461676573206c656e677468206d69736d617463680000000000604482015260640161051e565b5f805b82518110156105b95782818151811061059c5761059c6111b8565b6020026020010151826105af91906111e0565b9150600101610581565b508060641461060a5760405162461bcd60e51b815260206004820152601b60248201527f50657263656e7461676573206d7573742073756d20746f203130300000000000604482015260640161051e565b478061064e5760405162461bcd60e51b81526020600482015260136024820152724e6f2066756e647320746f2072656c6561736560681b604482015260640161051e565b5f5b6005548110156107a0575f6005828154811061066e5761066e6111b8565b5f91825260208220015486516001600160a01b03909116925060649087908590811061069c5761069c6111b8565b6020026020010151856106af91906111f9565b6106b99190611210565b90508015610796575f826001600160a01b0316826040515f6040518083038185875af1925050503d805f811461070a576040519150601f19603f3d011682016040523d82523d5f602084013e61070f565b606091505b50509050806107515760405162461bcd60e51b815260206004820152600e60248201526d14185e5b595b9d0819985a5b195960921b604482015260640161051e565b826001600160a01b03167fdf20fd1e76bc69d672e4814fafb2c449bba3a5369d8359adf9e05e6fde87b0568360405161078c91815260200190565b60405180910390a2505b5050600101610650565b505060016008555050565b6004602052815f5260405f2081815481106107c4575f80fd5b905f5260205f20015f91509150505481565b335f9081526001602052604090205460ff166108235760405162461bcd60e51b815260206004820152600c60248201526b2737ba1030b71037bbb732b960a11b604482015260640161051e565b600254841061086d5760405162461bcd60e51b8152602060048201526016602482015275141c9bd91d58dd08191bd95cc81b9bdd08195e1a5cdd60521b604482015260640161051e565b5f82116108bc5760405162461bcd60e51b815260206004820152601c60248201527f456c2070726563696f206465626520736572206d61796f722061203000000000604482015260640161051e565b5f848152600360205260409020600181016108d7858261127b565b506002810183905560038101805460ff60a01b1916600160a01b841515021790556040517f52402cafb2ecec722b103e8f203f83362148c168659dc96678c2c6850d12dd9f9061092e908790879087903390611336565b60405180910390a15050505050565b6005818154811061030e575f80fd5b60036020525f90815260409020805460018201805491929161096d90611186565b80601f016020809104026020016040519081016040528092919081815260200182805461099990611186565b80156109e45780601f106109bb576101008083540402835291602001916109e4565b820191905f5260205f20905b8154815290600101906020018083116109c757829003601f168201915b5050505060028301546003909301549192916001600160a01b0381169150600160a01b900460ff1685565b600854600203610a615760405162461bcd60e51b815260206004820152601f60248201527f5265656e7472616e63792047756172643a5265656e7472616e742063616c6c00604482015260640161051e565b60026008555f81815260036020819052604090912090810154600160a01b900460ff16610ac95760405162461bcd60e51b815260206004820152601660248201527550726f647563746f206e6f20646973706f6e69626c6560501b604482015260640161051e565b80600201543414610b0f5760405162461bcd60e51b815260206004820152601060248201526f4d6f6e746f20696e636f72726563746f60801b604482015260640161051e565b60405134815233907fe1fffcc4923d04b559f4d29a8bfc6cda04eb5b0d3c460751c2402c5c5cc9109c9060200160405180910390a2335f81815260046020908152604080832080546001810182559084529190922001849055600283015490517fa530f889d7f1bd9a73028e48944ca013ab2c6624a31e3fa26f923f4bb719abd592610bb4928683526001600160a01b03919091166020830152604082015260600190565b60405180910390a150506001600855565b335f9081526001602052604090205460ff16610c125760405162461bcd60e51b815260206004820152600c60248201526b2737ba1030b71037bbb732b960a11b604482015260640161051e565b5f8111610c615760405162461bcd60e51b815260206004820152601c60248201527f456c2070726563696f206465626520736572206d61796f722061203000000000604482015260640161051e565b600280545f9182610c718361136f565b909155506040805160a08101825282815260208082018781528284018790523360608401526001608084018190525f86815260039093529390912082518155905193945090929091820190610cc6908261127b565b5060408281015160028301556060830151600390920180546080909401511515600160a01b026001600160a81b03199094166001600160a01b0390931692909217929092179055517f52402cafb2ecec722b103e8f203f83362148c168659dc96678c2c6850d12dd9f90610d41908390869086903390611336565b60405180910390a1505050565b6001600160a01b0381165f90815260046020908152604091829020805483518184028101840190945280845260609392830182828015610dab57602002820191905f5260205f20905b815481526020019060010190808311610d97575b50505050509050919050565b5f60208284031215610dc7575f5ffd5b5035919050565b5f81518084528060208401602086015e5f602082860101526020601f19601f83011685010191505092915050565b5f602082016020835280845180835260408501915060408160051b8601019250602086015f5b82811015610e9357603f19878603018452815180518652602081015160a06020880152610e5260a0880182610dce565b604083810151908901526060808401516001600160a01b03169089015260809283015115159290970191909152506020938401939190910190600101610e22565b50929695505050505050565b634e487b7160e01b5f52604160045260245ffd5b604051601f8201601f1916810167ffffffffffffffff81118282101715610edc57610edc610e9f565b604052919050565b5f60208284031215610ef4575f5ffd5b813567ffffffffffffffff811115610f0a575f5ffd5b8201601f81018413610f1a575f5ffd5b803567ffffffffffffffff811115610f3457610f34610e9f565b8060051b610f4460208201610eb3565b91825260208184018101929081019087841115610f5f575f5ffd5b6020850194505b83851015610f8557843580835260209586019590935090910190610f66565b979650505050505050565b80356001600160a01b0381168114610fa6575f5ffd5b919050565b5f60208284031215610fbb575f5ffd5b610fc482610f90565b9392505050565b5f5f60408385031215610fdc575f5ffd5b610fe583610f90565b946020939093013593505050565b5f82601f830112611002575f5ffd5b813567ffffffffffffffff81111561101c5761101c610e9f565b61102f601f8201601f1916602001610eb3565b818152846020838601011115611043575f5ffd5b816020850160208301375f918101602001919091529392505050565b5f5f5f5f60808587031215611072575f5ffd5b84359350602085013567ffffffffffffffff81111561108f575f5ffd5b61109b87828801610ff3565b93505060408501359150606085013580151581146110b7575f5ffd5b939692955090935050565b85815260a060208201525f6110da60a0830187610dce565b6040830195909552506001600160a01b03929092166060830152151560809091015292915050565b5f5f60408385031215611113575f5ffd5b823567ffffffffffffffff811115611129575f5ffd5b61113585828601610ff3565b95602094909401359450505050565b602080825282518282018190525f918401906040840190835b8181101561117b57835183526020938401939092019160010161115d565b509095945050505050565b600181811c9082168061119a57607f821691505b6020821081036104ca57634e487b7160e01b5f52602260045260245ffd5b634e487b7160e01b5f52603260045260245ffd5b634e487b7160e01b5f52601160045260245ffd5b808201808211156111f3576111f36111cc565b92915050565b80820281158282048414176111f3576111f36111cc565b5f8261122a57634e487b7160e01b5f52601260045260245ffd5b500490565b601f82111561127657805f5260205f20601f840160051c810160208510156112545750805b601f840160051c820191505b81811015611273575f8155600101611260565b50505b505050565b815167ffffffffffffffff81111561129557611295610e9f565b6112a9816112a38454611186565b8461122f565b6020601f8211600181146112db575f83156112c45750848201515b5f19600385901b1c1916600184901b178455611273565b5f84815260208120601f198516915b8281101561130a57878501518255602094850194600190920191016112ea565b508482101561132757868401515f19600387901b60f8161c191681555b50505050600190811b01905550565b848152608060208201525f61134e6080830186610dce565b6040830194909452506001600160a01b039190911660609091015292915050565b5f60018201611380576113806111cc565b506001019056fea2646970667358221220eeaade3fdf008f00029945ced8cf4f917009c16b9cf0baa35272cfc93ac5886164736f6c634300081c0033",
  "linkReferences": {},
  "deployedLinkReferences": {},
  "immutableReferences": {},
  "inputSourceName": "project/contracts/Product.sol",
  "buildInfoId": "solc-0_8_28-a2c7217bcaed21390801d02d9bdb50b745662867"
}