{
  "_format": "hh3-artifact-1",
  "contractName": "MultiSignPaymentWallet",
  "sourceName": "contracts/Wallet.sol",
  "abi": [
    {
      "inputs": [
        {
          "internalType": "address[]",
          "name": "_owners",
          "type": "address[]"
        },
        {
          "internalType": "uint256",
          "name": "_requiredApprovals",
          "type": "uint256"
        },
        {
          "internalType": "address[]",
          "name": "_payees",
          "type": "address[]"
        },
        {
          "internalType": "uint256[]",
          "name": "_shares",
          "type": "uint256[]"
        }
      ],
      "stateMutability": "nonpayable",
      "type": "constructor"
    },
    {
      "anonymous": false,
      "inputs": [
        {
          "indexed": true,
          "internalType": "address",
          "name": "sender",
          "type": "address"
        },
        {
          "indexed": false,
          "internalType": "uint256",
          "name": "amount",
          "type": "uint256"
        }
      ],
      "name": "Deposit",
      "type": "event"
    },
    {
      "anonymous": false,
      "inputs": [
        {
          "indexed": true,
          "internalType": "address",
          "name": "payee",
          "type": "address"
        },
        {
          "indexed": false,
          "internalType": "uint256",
          "name": "amount",
          "type": "uint256"
        }
      ],
      "name": "PaymentReleased",
      "type": "event"
    },
    {
      "anonymous": false,
      "inputs": [
        {
          "indexed": true,
          "internalType": "uint256",
          "name": "txId",
          "type": "uint256"
        },
        {
          "indexed": false,
          "internalType": "address",
          "name": "owner",
          "type": "address"
        }
      ],
      "name": "TransactionApproved",
      "type": "event"
    },
    {
      "anonymous": false,
      "inputs": [
        {
          "indexed": true,
          "internalType": "uint256",
          "name": "txId",
          "type": "uint256"
        },
        {
          "indexed": true,
          "internalType": "address",
          "name": "to",
          "type": "address"
        },
        {
          "indexed": false,
          "internalType": "uint256",
          "name": "amount",
          "type": "uint256"
        }
      ],
      "name": "TransactionExecuted",
      "type": "event"
    },
    {
      "anonymous": false,
      "inputs": [
        {
          "indexed": true,
          "internalType": "uint256",
          "name": "txId",
          "type": "uint256"
        },
        {
          "indexed": false,
          "internalType": "address",
          "name": "owner",
          "type": "address"
        }
      ],
      "name": "TransactionRevoked",
      "type": "event"
    },
    {
      "anonymous": false,
      "inputs": [
        {
          "indexed": true,
          "internalType": "uint256",
          "name": "txId",
          "type": "uint256"
        },
        {
          "indexed": true,
          "internalType": "address",
          "name": "to",
          "type": "address"
        },
        {
          "indexed": false,
          "internalType": "uint256",
          "name": "amount",
          "type": "uint256"
        }
      ],
      "name": "TransactionSubmitted",
      "type": "event"
    },
    {
      "inputs": [
        {
          "internalType": "uint256",
          "name": "",
          "type": "uint256"
        },
        {
          "internalType": "address",
          "name": "",
          "type": "address"
        }
      ],
      "name": "approvalTimestamps",
      "outputs": [
        {
          "internalType": "uint256",
          "name": "",
          "type": "uint256"
        }
      ],
      "stateMutability": "view",
      "type": "function"
    },
    {
      "inputs": [
        {
          "internalType": "uint256",
          "name": "",
          "type": "uint256"
        },
        {
          "internalType": "address",
          "name": "",
          "type": "address"
        }
      ],
      "name": "approvals",
      "outputs": [
        {
          "internalType": "bool",
          "name": "",
          "type": "bool"
        }
      ],
      "stateMutability": "view",
      "type": "function"
    },
    {
      "inputs": [
        {
          "internalType": "uint256",
          "name": "txId",
          "type": "uint256"
        }
      ],
      "name": "approveTransaction",
      "outputs": [],
      "stateMutability": "nonpayable",
      "type": "function"
    },
    {
      "inputs": [],
      "name": "deposit",
      "outputs": [],
      "stateMutability": "payable",
      "type": "function"
    },
    {
      "inputs": [
        {
          "internalType": "uint256",
          "name": "txId",
          "type": "uint256"
        }
      ],
      "name": "executeTransaction",
      "outputs": [],
      "stateMutability": "nonpayable",
      "type": "function"
    },
    {
      "inputs": [],
      "name": "getBalance",
      "outputs": [
        {
          "internalType": "uint256",
          "name": "",
          "type": "uint256"
        }
      ],
      "stateMutability": "view",
      "type": "function"
    },
    {
      "inputs": [
        {
          "internalType": "uint256",
          "name": "txId",
          "type": "uint256"
        }
      ],
      "name": "getTransactionApprovers",
      "outputs": [
        {
          "components": [
            {
              "internalType": "address",
              "name": "approver",
              "type": "address"
            },
            {
              "internalType": "uint256",
              "name": "timestamp",
              "type": "uint256"
            }
          ],
          "internalType": "struct MultiSignPaymentWallet.Approval[]",
          "name": "",
          "type": "tuple[]"
        }
      ],
      "stateMutability": "view",
      "type": "function"
    },
    {
      "inputs": [],
      "name": "getTransactions",
      "outputs": [
        {
          "components": [
            {
              "internalType": "address",
              "name": "to",
              "type": "address"
            },
            {
              "internalType": "uint256",
              "name": "amount",
              "type": "uint256"
            },
            {
              "internalType": "uint256",
              "name": "approvalCount",
              "type": "uint256"
            },
            {
              "internalType": "bool",
              "name": "executed",
              "type": "bool"
            }
          ],
          "internalType": "struct MultiSignPaymentWallet.Transaction[]",
          "name": "",
          "type": "tuple[]"
        }
      ],
      "stateMutability": "view",
      "type": "function"
    },
    {
      "inputs": [
        {
          "internalType": "address",
          "name": "",
          "type": "address"
        }
      ],
      "name": "isOwner",
      "outputs": [
        {
          "internalType": "bool",
          "name": "",
          "type": "bool"
        }
      ],
      "stateMutability": "view",
      "type": "function"
    },
    {
      "inputs": [
        {
          "internalType": "uint256",
          "name": "",
          "type": "uint256"
        }
      ],
      "name": "owners",
      "outputs": [
        {
          "internalType": "address",
          "name": "",
          "type": "address"
        }
      ],
      "stateMutability": "view",
      "type": "function"
    },
    {
      "inputs": [
        {
          "internalType": "uint256",
          "name": "",
          "type": "uint256"
        }
      ],
      "name": "payees",
      "outputs": [
        {
          "internalType": "address",
          "name": "",
          "type": "address"
        }
      ],
      "stateMutability": "view",
      "type": "function"
    },
    {
      "inputs": [],
      "name": "releasePayments",
      "outputs": [],
      "stateMutability": "nonpayable",
      "type": "function"
    },
    {
      "inputs": [],
      "name": "requiredApprovals",
      "outputs": [
        {
          "internalType": "uint256",
          "name": "",
          "type": "uint256"
        }
      ],
      "stateMutability": "view",
      "type": "function"
    },
    {
      "inputs": [
        {
          "internalType": "uint256",
          "name": "txId",
          "type": "uint256"
        }
      ],
      "name": "revokeApproval",
      "outputs": [],
      "stateMutability": "nonpayable",
      "type": "function"
    },
    {
      "inputs": [
        {
          "internalType": "address",
          "name": "",
          "type": "address"
        }
      ],
      "name": "shares",
      "outputs": [
        {
          "internalType": "uint256",
          "name": "",
          "type": "uint256"
        }
      ],
      "stateMutability": "view",
      "type": "function"
    },
    {
      "inputs": [
        {
          "internalType": "address",
          "name": "_to",
          "type": "address"
        },
        {
          "internalType": "uint256",
          "name": "amount",
          "type": "uint256"
        }
      ],
      "name": "submitTransaction",
      "outputs": [],
      "stateMutability": "nonpayable",
      "type": "function"
    },
    {
      "inputs": [],
      "name": "totalShares",
      "outputs": [
        {
          "internalType": "uint256",
          "name": "",
          "type": "uint256"
        }
      ],
      "stateMutability": "view",
      "type": "function"
    },
    {
      "inputs": [
        {
          "internalType": "uint256",
          "name": "",
          "type": "uint256"
        },
        {
          "internalType": "uint256",
          "name": "",
          "type": "uint256"
        }
      ],
      "name": "transactionApprovals",
      "outputs": [
        {
          "internalType": "address",
          "name": "approver",
          "type": "address"
        },
        {
          "internalType": "uint256",
          "name": "timestamp",
          "type": "uint256"
        }
      ],
      "stateMutability": "view",
      "type": "function"
    },
    {
      "inputs": [
        {
          "internalType": "uint256",
          "name": "",
          "type": "uint256"
        }
      ],
      "name": "transactions",
      "outputs": [
        {
          "internalType": "address",
          "name": "to",
          "type": "address"
        },
        {
          "internalType": "uint256",
          "name": "amount",
          "type": "uint256"
        },
        {
          "internalType": "uint256",
          "name": "approvalCount",
          "type": "uint256"
        },
        {
          "internalType": "bool",
          "name": "executed",
          "type": "bool"
        }
      ],
      "stateMutability": "view",
      "type": "function"
    }
  ],
  "bytecode": "0x608060405234801561000f575f5ffd5b5060405161191038038061191083398101604081905261002e9161052f565b6001600a5583516100795760405162461bcd60e51b815260206004820152601060248201526f4d7573742068617665206f776e65727360801b60448201526064015b60405180910390fd5b5f83118015610089575083518311155b6100c95760405162461bcd60e51b8152602060048201526011602482015270496e76616c696420417070726f76616c7360781b6044820152606401610070565b5f5b8451811015610209575f8582815181106100e7576100e761061f565b602002602001015190505f6001600160a01b0316816001600160a01b0316036101445760405162461bcd60e51b815260206004820152600f60248201526e496e76616c6964204164647265737360881b6044820152606401610070565b6001600160a01b0381165f9081526002602052604090205460ff161561019f5760405162461bcd60e51b815260206004820152601060248201526f4f776e6572206e6f7420756e6971756560801b6044820152606401610070565b6001600160a01b03165f818152600260205260408120805460ff19166001908117909155815480820183559180527f290decd9548b62a8d60345a988386fc84ba6bc95484008f6362f93160ef3e56390910180546001600160a01b031916909217909155016100cb565b50600183905580518251146102525760405162461bcd60e51b815260206004820152600f60248201526e098cadccee8d040dad2e6dac2e8c6d608b1b6044820152606401610070565b5f82511161028e5760405162461bcd60e51b81526020600482015260096024820152684e6f2070617965657360b81b6044820152606401610070565b5f5b8251811015610441575f6001600160a01b03168382815181106102b5576102b561061f565b60200260200101516001600160a01b0316036103055760405162461bcd60e51b815260206004820152600f60248201526e696e76616c6964206164647265737360881b6044820152606401610070565b5f8282815181106103185761031861061f565b6020026020010151116103605760405162461bcd60e51b815260206004820152601060248201526f0736861726573206d7573742062653e360841b6044820152606401610070565b60078382815181106103745761037461061f565b60209081029190910181015182546001810184555f938452919092200180546001600160a01b0319166001600160a01b0390921691909117905581518290829081106103c2576103c261061f565b602002602001015160085f8584815181106103df576103df61061f565b60200260200101516001600160a01b03166001600160a01b031681526020019081526020015f208190555081818151811061041c5761041c61061f565b602002602001015160095f8282546104349190610633565b9091555050600101610290565b5050505050610658565b634e487b7160e01b5f52604160045260245ffd5b604051601f8201601f191681016001600160401b03811182821017156104875761048761044b565b604052919050565b5f6001600160401b038211156104a7576104a761044b565b5060051b60200190565b5f82601f8301126104c0575f5ffd5b81516104d36104ce8261048f565b61045f565b8082825260208201915060208360051b8601019250858311156104f4575f5ffd5b602085015b838110156105255780516001600160a01b0381168114610517575f5ffd5b8352602092830192016104f9565b5095945050505050565b5f5f5f5f60808587031215610542575f5ffd5b84516001600160401b03811115610557575f5ffd5b610563878288016104b1565b60208701516040880151919650945090506001600160401b03811115610587575f5ffd5b610593878288016104b1565b606087015190935090506001600160401b038111156105b0575f5ffd5b8501601f810187136105c0575f5ffd5b80516105ce6104ce8261048f565b8082825260208201915060208360051b8501019250898311156105ef575f5ffd5b6020840193505b828410156106115783518252602093840193909101906105f6565b969995985093965050505050565b634e487b7160e01b5f52603260045260245ffd5b8082018082111561065257634e487b7160e01b5f52601160045260245ffd5b92915050565b6112ab806106655f395ff3fe608060405260043610610110575f3560e01c80638a6bfcaa1161009d578063b1e130fc11610062578063b1e130fc14610360578063ce7c2ac21461037f578063d0e30db0146103aa578063ee14f408146103b2578063ee22610b146103de575f5ffd5b80638a6bfcaa1461027d57806399c1aadc146102b35780639ace38c2146102c8578063ab2850da14610313578063ada403a31461034c575f5ffd5b80632f54bf6e116100e35780632f54bf6e146101ac5780633a98ef39146101ea57806363037b0c146101ff5780636a7ffb3d1461021e57806383920e901461025c575f5ffd5b8063025e7c271461011457806312065fe0146101505780631d43b6531461016c578063242232d11461018d575b5f5ffd5b34801561011f575f5ffd5b5061013361012e36600461100e565b6103fd565b6040516001600160a01b0390911681526020015b60405180910390f35b34801561015b575f5ffd5b50475b604051908152602001610147565b348015610177575f5ffd5b5061018b610186366004611040565b610424565b005b348015610198575f5ffd5b5061018b6101a736600461100e565b610650565b3480156101b7575f5ffd5b506101da6101c6366004611068565b60026020525f908152604090205460ff1681565b6040519015158152602001610147565b3480156101f5575f5ffd5b5061015e60095481565b34801561020a575f5ffd5b5061013361021936600461100e565b61082a565b348015610229575f5ffd5b5061023d610238366004611088565b610839565b604080516001600160a01b039093168352602083019190915201610147565b348015610267575f5ffd5b5061027061087b565b60405161014791906110a8565b348015610288575f5ffd5b5061015e610297366004611118565b600660209081525f928352604080842090915290825290205481565b3480156102be575f5ffd5b5061015e60015481565b3480156102d3575f5ffd5b506102e76102e236600461100e565b610908565b604080516001600160a01b03909516855260208501939093529183015215156060820152608001610147565b34801561031e575f5ffd5b506101da61032d366004611118565b600460209081525f928352604080842090915290825290205460ff1681565b348015610357575f5ffd5b5061018b61094d565b34801561036b575f5ffd5b5061018b61037a36600461100e565b610b38565b34801561038a575f5ffd5b5061015e610399366004611068565b60086020525f908152604090205481565b61018b610c92565b3480156103bd575f5ffd5b506103d16103cc36600461100e565b610d0d565b6040516101479190611142565b3480156103e9575f5ffd5b5061018b6103f836600461100e565b610dab565b5f818154811061040b575f80fd5b5f918252602090912001546001600160a01b0316905081565b335f9081526002602052604090205460ff1661043e575f5ffd5b6001600160a01b03821661048b5760405162461bcd60e51b815260206004820152600f60248201526e496e76616c6964204164647265737360881b60448201526064015b60405180910390fd5b5f81116104cb5760405162461bcd60e51b815260206004820152600e60248201526d125b9d985b1a5908105b5bdd5b9d60921b6044820152606401610482565b478111156105125760405162461bcd60e51b8152602060048201526014602482015273496e73756666696369656e742062616c616e636560601b6044820152606401610482565b604080516080810182526001600160a01b03848116808352602083018581525f9484018581526060850186815260038054600180820183559882905296517fc2575a0e9e593c00f959f8c92f12db2869c3395a3b0502d05e2516446f71f85b600490980297880180546001600160a01b031916919097161790955591517fc2575a0e9e593c00f959f8c92f12db2869c3395a3b0502d05e2516446f71f85c860155517fc2575a0e9e593c00f959f8c92f12db2869c3395a3b0502d05e2516446f71f85d850155517fc2575a0e9e593c00f959f8c92f12db2869c3395a3b0502d05e2516446f71f85e909301805460ff191693151593909317909255549091610619916111a2565b6040518381527f6974e8be5912ae917b788db2884a51e71cbe0f0979af347e6a32d07d52ef82a39060200160405180910390a35050565b335f9081526002602052604090205460ff1661066a575f5ffd5b600354811061068b5760405162461bcd60e51b8152600401610482906111bb565b5f6003828154811061069f5761069f6111eb565b5f9182526020909120600490910201600381015490915060ff16156106d65760405162461bcd60e51b8152600401610482906111ff565b5f82815260046020908152604080832033845290915290205460ff161561073f5760405162461bcd60e51b815260206004820152601d60248201527f547820616c726561647920617070726f7665642062792063616c6c65720000006044820152606401610482565b5f8281526004602090815260408083203384529091528120805460ff191660019081179091556002830180549192909161077a90849061122c565b90915550505f8281526005602090815260408083208151808301835233808252428286018181528454600180820187559589528789209451600290910290940180546001600160a01b0319166001600160a01b0390951694909417845551929093019190915586855260068452828520818652845293829020555191825283917f924813d717e221b5f46dcd8a56da1679e4612584ab3237d55e5faabf6f6a307991015b60405180910390a25050565b6007818154811061040b575f80fd5b6005602052815f5260405f208181548110610852575f80fd5b5f918252602090912060029091020180546001909101546001600160a01b039091169250905082565b60606003805480602002602001604051908101604052809291908181526020015f905b828210156108ff575f848152602090819020604080516080810182526004860290920180546001600160a01b03168352600180820154848601526002820154928401929092526003015460ff1615156060830152908352909201910161089e565b50505050905090565b60038181548110610917575f80fd5b5f91825260209091206004909102018054600182015460028301546003909301546001600160a01b039092169350919060ff1684565b600a5460020361099f5760405162461bcd60e51b815260206004820152601f60248201527f5265656e7472616e63792047756172643a5265656e7472616e742063616c6c006044820152606401610482565b6002600a5547806109e85760405162461bcd60e51b81526020600482015260136024820152724e6f2066756e647320746f2072656c6561736560681b6044820152606401610482565b5f5b600754811015610b2f575f60078281548110610a0857610a086111eb565b5f9182526020808320909101546009546001600160a01b039091168084526008909252604083205491935090610a3e908661123f565b610a489190611256565b90508015610b25575f826001600160a01b0316826040515f6040518083038185875af1925050503d805f8114610a99576040519150601f19603f3d011682016040523d82523d5f602084013e610a9e565b606091505b5050905080610ae05760405162461bcd60e51b815260206004820152600e60248201526d14185e5b595b9d0819985a5b195960921b6044820152606401610482565b826001600160a01b03167fdf20fd1e76bc69d672e4814fafb2c449bba3a5369d8359adf9e05e6fde87b05683604051610b1b91815260200190565b60405180910390a2505b50506001016109ea565b50506001600a55565b335f9081526002602052604090205460ff16610b52575f5ffd5b6003548110610b735760405162461bcd60e51b8152600401610482906111bb565b5f60038281548110610b8757610b876111eb565b5f9182526020909120600490910201600381015490915060ff1615610bbe5760405162461bcd60e51b8152600401610482906111ff565b5f82815260046020908152604080832033845290915290205460ff16610c265760405162461bcd60e51b815260206004820152601960248201527f5478206e6f7420617070726f7665642062792063616c6c6572000000000000006044820152606401610482565b5f8281526004602090815260408083203384529091528120805460ff1916905560028201805460019290610c5b9084906111a2565b909155505060405133815282907f4cd471041f6b9ff47536a54a3d3ab62d0fa9dd5e36c0418b294b1673acb318819060200161081e565b5f3411610cd65760405162461bcd60e51b81526020600482015260126024820152712232b132b99036b0b73230b91032ba3432b960711b6044820152606401610482565b60405134815233907fe1fffcc4923d04b559f4d29a8bfc6cda04eb5b0d3c460751c2402c5c5cc9109c9060200160405180910390a2565b6003546060908210610d315760405162461bcd60e51b8152600401610482906111bb565b5f82815260056020908152604080832080548251818502810185019093528083529193909284015b82821015610da0575f848152602090819020604080518082019091526002850290910180546001600160a01b03168252600190810154828401529083529092019101610d59565b505050509050919050565b335f9081526002602052604090205460ff16610dc5575f5ffd5b600a54600203610e175760405162461bcd60e51b815260206004820152601f60248201527f5265656e7472616e63792047756172643a5265656e7472616e742063616c6c006044820152606401610482565b6002600a556003548110610e3d5760405162461bcd60e51b8152600401610482906111bb565b5f60038281548110610e5157610e516111eb565b905f5260205f209060040201905060015481600201541015610eac5760405162461bcd60e51b81526020600482015260146024820152734e6f7420656e6f75676820617070726f76616c7360601b6044820152606401610482565b600381015460ff1615610ed15760405162461bcd60e51b8152600401610482906111ff565b4781600101541115610f1c5760405162461bcd60e51b8152602060048201526014602482015273496e73756666696369656e742062616c616e636560601b6044820152606401610482565b60038101805460ff191660019081179091558154908201546040515f926001600160a01b031691908381818185875af1925050503d805f8114610f7a576040519150601f19603f3d011682016040523d82523d5f602084013e610f7f565b606091505b5050905080610fbc5760405162461bcd60e51b8152602060048201526009602482015268151e0819985a5b195960ba1b6044820152606401610482565b815460018301546040519081526001600160a01b039091169084907fda19024f6708ce28e75d9c0ec389fb05a8e5cc9dfe520f61239c10d51a11e59c9060200160405180910390a350506001600a5550565b5f6020828403121561101e575f5ffd5b5035919050565b80356001600160a01b038116811461103b575f5ffd5b919050565b5f5f60408385031215611051575f5ffd5b61105a83611025565b946020939093013593505050565b5f60208284031215611078575f5ffd5b61108182611025565b9392505050565b5f5f60408385031215611099575f5ffd5b50508035926020909101359150565b602080825282518282018190525f918401906040840190835b8181101561110d57835180516001600160a01b031684526020808201518186015260408083015190860152606091820151151591850191909152909301926080909201916001016110c1565b509095945050505050565b5f5f60408385031215611129575f5ffd5b8235915061113960208401611025565b90509250929050565b602080825282518282018190525f918401906040840190835b8181101561110d57835180516001600160a01b03168452602090810151818501529093019260409092019160010161115b565b634e487b7160e01b5f52601160045260245ffd5b818103818111156111b5576111b561118e565b92915050565b602080825260169082015275125b9d985b1a59081d1c985b9cd858dd1a5bdb88125160521b604082015260600190565b634e487b7160e01b5f52603260045260245ffd5b602080825260139082015272151e08185b1c9958591e48195e1958dd5d1959606a1b604082015260600190565b808201808211156111b5576111b561118e565b80820281158282048414176111b5576111b561118e565b5f8261127057634e487b7160e01b5f52601260045260245ffd5b50049056fea26469706673582212201921f75accb69b0cc5a82e9e98a7d12878fd145c0e6999c9465509927b74258964736f6c634300081c0033",
  "linkReferences": {},
  "deployedLinkReferences": {},
  "immutableReferences": {},
  "inputSourceName": "project/contracts/Wallet.sol",
  "buildInfoId": "solc-0_8_28-7f91b5136db809cc368667ff73edb1765993e6d5"
}