{
  "_format": "hh3-artifact-1",
  "contractName": "MultiSignPaymentWallet",
  "sourceName": "contracts/Wallet.sol",
  "abi": [
    {
      "inputs": [
        {
          "internalType": "address[]",
          "name": "_owners",
          "type": "address[]"
        },
        {
          "internalType": "uint256",
          "name": "_requiredApprovals",
          "type": "uint256"
        },
        {
          "internalType": "address[]",
          "name": "_payees",
          "type": "address[]"
        },
        {
          "internalType": "uint256[]",
          "name": "_shares",
          "type": "uint256[]"
        }
      ],
      "stateMutability": "nonpayable",
      "type": "constructor"
    },
    {
      "anonymous": false,
      "inputs": [
        {
          "indexed": true,
          "internalType": "address",
          "name": "sender",
          "type": "address"
        },
        {
          "indexed": false,
          "internalType": "uint256",
          "name": "amount",
          "type": "uint256"
        }
      ],
      "name": "Deposit",
      "type": "event"
    },
    {
      "anonymous": false,
      "inputs": [
        {
          "indexed": true,
          "internalType": "address",
          "name": "payee",
          "type": "address"
        },
        {
          "indexed": false,
          "internalType": "uint256",
          "name": "amount",
          "type": "uint256"
        }
      ],
      "name": "PaymentReleased",
      "type": "event"
    },
    {
      "anonymous": false,
      "inputs": [
        {
          "indexed": true,
          "internalType": "uint256",
          "name": "txId",
          "type": "uint256"
        },
        {
          "indexed": false,
          "internalType": "address",
          "name": "owner",
          "type": "address"
        }
      ],
      "name": "TransactionApproved",
      "type": "event"
    },
    {
      "anonymous": false,
      "inputs": [
        {
          "indexed": true,
          "internalType": "uint256",
          "name": "txId",
          "type": "uint256"
        },
        {
          "indexed": true,
          "internalType": "address",
          "name": "to",
          "type": "address"
        },
        {
          "indexed": false,
          "internalType": "uint256",
          "name": "amount",
          "type": "uint256"
        }
      ],
      "name": "TransactionExecuted",
      "type": "event"
    },
    {
      "anonymous": false,
      "inputs": [
        {
          "indexed": true,
          "internalType": "uint256",
          "name": "txId",
          "type": "uint256"
        },
        {
          "indexed": false,
          "internalType": "address",
          "name": "owner",
          "type": "address"
        }
      ],
      "name": "TransactionRevoked",
      "type": "event"
    },
    {
      "anonymous": false,
      "inputs": [
        {
          "indexed": true,
          "internalType": "uint256",
          "name": "txId",
          "type": "uint256"
        },
        {
          "indexed": true,
          "internalType": "address",
          "name": "to",
          "type": "address"
        },
        {
          "indexed": false,
          "internalType": "uint256",
          "name": "amount",
          "type": "uint256"
        }
      ],
      "name": "TransactionSubmitted",
      "type": "event"
    },
    {
      "inputs": [
        {
          "internalType": "uint256",
          "name": "",
          "type": "uint256"
        },
        {
          "internalType": "address",
          "name": "",
          "type": "address"
        }
      ],
      "name": "approvals",
      "outputs": [
        {
          "internalType": "bool",
          "name": "",
          "type": "bool"
        }
      ],
      "stateMutability": "view",
      "type": "function"
    },
    {
      "inputs": [
        {
          "internalType": "uint256",
          "name": "txId",
          "type": "uint256"
        }
      ],
      "name": "approveTransaction",
      "outputs": [],
      "stateMutability": "nonpayable",
      "type": "function"
    },
    {
      "inputs": [],
      "name": "deposit",
      "outputs": [],
      "stateMutability": "payable",
      "type": "function"
    },
    {
      "inputs": [
        {
          "internalType": "uint256",
          "name": "txId",
          "type": "uint256"
        }
      ],
      "name": "executeTransaction",
      "outputs": [],
      "stateMutability": "nonpayable",
      "type": "function"
    },
    {
      "inputs": [],
      "name": "getBalance",
      "outputs": [
        {
          "internalType": "uint256",
          "name": "",
          "type": "uint256"
        }
      ],
      "stateMutability": "view",
      "type": "function"
    },
    {
      "inputs": [],
      "name": "getTransactions",
      "outputs": [
        {
          "components": [
            {
              "internalType": "address",
              "name": "to",
              "type": "address"
            },
            {
              "internalType": "uint256",
              "name": "amount",
              "type": "uint256"
            },
            {
              "internalType": "uint256",
              "name": "approvalCount",
              "type": "uint256"
            },
            {
              "internalType": "bool",
              "name": "executed",
              "type": "bool"
            }
          ],
          "internalType": "struct MultiSignPaymentWallet.Transaction[]",
          "name": "",
          "type": "tuple[]"
        }
      ],
      "stateMutability": "view",
      "type": "function"
    },
    {
      "inputs": [
        {
          "internalType": "address",
          "name": "",
          "type": "address"
        }
      ],
      "name": "isOwner",
      "outputs": [
        {
          "internalType": "bool",
          "name": "",
          "type": "bool"
        }
      ],
      "stateMutability": "view",
      "type": "function"
    },
    {
      "inputs": [
        {
          "internalType": "uint256",
          "name": "",
          "type": "uint256"
        }
      ],
      "name": "owners",
      "outputs": [
        {
          "internalType": "address",
          "name": "",
          "type": "address"
        }
      ],
      "stateMutability": "view",
      "type": "function"
    },
    {
      "inputs": [
        {
          "internalType": "uint256",
          "name": "",
          "type": "uint256"
        }
      ],
      "name": "payees",
      "outputs": [
        {
          "internalType": "address",
          "name": "",
          "type": "address"
        }
      ],
      "stateMutability": "view",
      "type": "function"
    },
    {
      "inputs": [],
      "name": "releasePayments",
      "outputs": [],
      "stateMutability": "nonpayable",
      "type": "function"
    },
    {
      "inputs": [],
      "name": "requiredApprovals",
      "outputs": [
        {
          "internalType": "uint256",
          "name": "",
          "type": "uint256"
        }
      ],
      "stateMutability": "view",
      "type": "function"
    },
    {
      "inputs": [
        {
          "internalType": "uint256",
          "name": "txId",
          "type": "uint256"
        }
      ],
      "name": "revokeApproval",
      "outputs": [],
      "stateMutability": "nonpayable",
      "type": "function"
    },
    {
      "inputs": [
        {
          "internalType": "address",
          "name": "",
          "type": "address"
        }
      ],
      "name": "shares",
      "outputs": [
        {
          "internalType": "uint256",
          "name": "",
          "type": "uint256"
        }
      ],
      "stateMutability": "view",
      "type": "function"
    },
    {
      "inputs": [
        {
          "internalType": "address",
          "name": "_to",
          "type": "address"
        },
        {
          "internalType": "uint256",
          "name": "amount",
          "type": "uint256"
        }
      ],
      "name": "submitTransaction",
      "outputs": [],
      "stateMutability": "nonpayable",
      "type": "function"
    },
    {
      "inputs": [],
      "name": "totalShares",
      "outputs": [
        {
          "internalType": "uint256",
          "name": "",
          "type": "uint256"
        }
      ],
      "stateMutability": "view",
      "type": "function"
    },
    {
      "inputs": [
        {
          "internalType": "uint256",
          "name": "",
          "type": "uint256"
        }
      ],
      "name": "transactions",
      "outputs": [
        {
          "internalType": "address",
          "name": "to",
          "type": "address"
        },
        {
          "internalType": "uint256",
          "name": "amount",
          "type": "uint256"
        },
        {
          "internalType": "uint256",
          "name": "approvalCount",
          "type": "uint256"
        },
        {
          "internalType": "bool",
          "name": "executed",
          "type": "bool"
        }
      ],
      "stateMutability": "view",
      "type": "function"
    }
  ],
  "bytecode": "0x608060405234801561000f575f5ffd5b5060405161169238038061169283398101604081905261002e9161052f565b600160085583516100795760405162461bcd60e51b815260206004820152601060248201526f4d7573742068617665206f776e65727360801b60448201526064015b60405180910390fd5b5f83118015610089575083518311155b6100c95760405162461bcd60e51b8152602060048201526011602482015270496e76616c696420417070726f76616c7360781b6044820152606401610070565b5f5b8451811015610209575f8582815181106100e7576100e761061f565b602002602001015190505f6001600160a01b0316816001600160a01b0316036101445760405162461bcd60e51b815260206004820152600f60248201526e496e76616c6964204164647265737360881b6044820152606401610070565b6001600160a01b0381165f9081526002602052604090205460ff161561019f5760405162461bcd60e51b815260206004820152601060248201526f4f776e6572206e6f7420756e6971756560801b6044820152606401610070565b6001600160a01b03165f818152600260205260408120805460ff19166001908117909155815480820183559180527f290decd9548b62a8d60345a988386fc84ba6bc95484008f6362f93160ef3e56390910180546001600160a01b031916909217909155016100cb565b50600183905580518251146102525760405162461bcd60e51b815260206004820152600f60248201526e098cadccee8d040dad2e6dac2e8c6d608b1b6044820152606401610070565b5f82511161028e5760405162461bcd60e51b81526020600482015260096024820152684e6f2070617965657360b81b6044820152606401610070565b5f5b8251811015610441575f6001600160a01b03168382815181106102b5576102b561061f565b60200260200101516001600160a01b0316036103055760405162461bcd60e51b815260206004820152600f60248201526e696e76616c6964206164647265737360881b6044820152606401610070565b5f8282815181106103185761031861061f565b6020026020010151116103605760405162461bcd60e51b815260206004820152601060248201526f0736861726573206d7573742062653e360841b6044820152606401610070565b60058382815181106103745761037461061f565b60209081029190910181015182546001810184555f938452919092200180546001600160a01b0319166001600160a01b0390921691909117905581518290829081106103c2576103c261061f565b602002602001015160065f8584815181106103df576103df61061f565b60200260200101516001600160a01b03166001600160a01b031681526020019081526020015f208190555081818151811061041c5761041c61061f565b602002602001015160075f8282546104349190610633565b9091555050600101610290565b5050505050610658565b634e487b7160e01b5f52604160045260245ffd5b604051601f8201601f191681016001600160401b03811182821017156104875761048761044b565b604052919050565b5f6001600160401b038211156104a7576104a761044b565b5060051b60200190565b5f82601f8301126104c0575f5ffd5b81516104d36104ce8261048f565b61045f565b8082825260208201915060208360051b8601019250858311156104f4575f5ffd5b602085015b838110156105255780516001600160a01b0381168114610517575f5ffd5b8352602092830192016104f9565b5095945050505050565b5f5f5f5f60808587031215610542575f5ffd5b84516001600160401b03811115610557575f5ffd5b610563878288016104b1565b60208701516040880151919650945090506001600160401b03811115610587575f5ffd5b610593878288016104b1565b606087015190935090506001600160401b038111156105b0575f5ffd5b8501601f810187136105c0575f5ffd5b80516105ce6104ce8261048f565b8082825260208201915060208360051b8501019250898311156105ef575f5ffd5b6020840193505b828410156106115783518252602093840193909101906105f6565b969995985093965050505050565b634e487b7160e01b5f52603260045260245ffd5b8082018082111561065257634e487b7160e01b5f52601160045260245ffd5b92915050565b61102d806106655f395ff3fe6080604052600436106100ef575f3560e01c806399c1aadc11610087578063b1e130fc11610057578063b1e130fc146102cb578063ce7c2ac2146102ea578063d0e30db014610315578063ee22610b1461031d575f5ffd5b806399c1aadc1461021e5780639ace38c214610233578063ab2850da1461027e578063ada403a3146102b7575f5ffd5b80632f54bf6e116100c25780632f54bf6e1461018b5780633a98ef39146101c957806363037b0c146101de57806383920e90146101fd575f5ffd5b8063025e7c27146100f357806312065fe01461012f5780631d43b6531461014b578063242232d11461016c575b5f5ffd5b3480156100fe575f5ffd5b5061011261010d366004610dfc565b61033c565b6040516001600160a01b0390911681526020015b60405180910390f35b34801561013a575f5ffd5b50475b604051908152602001610126565b348015610156575f5ffd5b5061016a610165366004610e2e565b610363565b005b348015610177575f5ffd5b5061016a610186366004610dfc565b61058f565b348015610196575f5ffd5b506101b96101a5366004610e56565b60026020525f908152604090205460ff1681565b6040519015158152602001610126565b3480156101d4575f5ffd5b5061013d60075481565b3480156101e9575f5ffd5b506101126101f8366004610dfc565b6106f8565b348015610208575f5ffd5b50610211610707565b6040516101269190610e76565b348015610229575f5ffd5b5061013d60015481565b34801561023e575f5ffd5b5061025261024d366004610dfc565b610794565b604080516001600160a01b03909516855260208501939093529183015215156060820152608001610126565b348015610289575f5ffd5b506101b9610298366004610ee6565b600460209081525f928352604080842090915290825290205460ff1681565b3480156102c2575f5ffd5b5061016a6107d9565b3480156102d6575f5ffd5b5061016a6102e5366004610dfc565b6109c4565b3480156102f5575f5ffd5b5061013d610304366004610e56565b60066020525f908152604090205481565b61016a610b1e565b348015610328575f5ffd5b5061016a610337366004610dfc565b610b99565b5f818154811061034a575f80fd5b5f918252602090912001546001600160a01b0316905081565b335f9081526002602052604090205460ff1661037d575f5ffd5b6001600160a01b0382166103ca5760405162461bcd60e51b815260206004820152600f60248201526e496e76616c6964204164647265737360881b60448201526064015b60405180910390fd5b5f811161040a5760405162461bcd60e51b815260206004820152600e60248201526d125b9d985b1a5908105b5bdd5b9d60921b60448201526064016103c1565b478111156104515760405162461bcd60e51b8152602060048201526014602482015273496e73756666696369656e742062616c616e636560601b60448201526064016103c1565b604080516080810182526001600160a01b03848116808352602083018581525f9484018581526060850186815260038054600180820183559882905296517fc2575a0e9e593c00f959f8c92f12db2869c3395a3b0502d05e2516446f71f85b600490980297880180546001600160a01b031916919097161790955591517fc2575a0e9e593c00f959f8c92f12db2869c3395a3b0502d05e2516446f71f85c860155517fc2575a0e9e593c00f959f8c92f12db2869c3395a3b0502d05e2516446f71f85d850155517fc2575a0e9e593c00f959f8c92f12db2869c3395a3b0502d05e2516446f71f85e909301805460ff19169315159390931790925554909161055891610f24565b6040518381527f6974e8be5912ae917b788db2884a51e71cbe0f0979af347e6a32d07d52ef82a39060200160405180910390a35050565b335f9081526002602052604090205460ff166105a9575f5ffd5b60035481106105ca5760405162461bcd60e51b81526004016103c190610f3d565b5f600382815481106105de576105de610f6d565b5f9182526020909120600490910201600381015490915060ff16156106155760405162461bcd60e51b81526004016103c190610f81565b5f82815260046020908152604080832033845290915290205460ff161561067e5760405162461bcd60e51b815260206004820152601d60248201527f547820616c726561647920617070726f7665642062792063616c6c657200000060448201526064016103c1565b5f8281526004602090815260408083203384529091528120805460ff19166001908117909155600283018054919290916106b9908490610fae565b909155505060405133815282907f924813d717e221b5f46dcd8a56da1679e4612584ab3237d55e5faabf6f6a3079906020015b60405180910390a25050565b6005818154811061034a575f80fd5b60606003805480602002602001604051908101604052809291908181526020015f905b8282101561078b575f848152602090819020604080516080810182526004860290920180546001600160a01b03168352600180820154848601526002820154928401929092526003015460ff1615156060830152908352909201910161072a565b50505050905090565b600381815481106107a3575f80fd5b5f91825260209091206004909102018054600182015460028301546003909301546001600160a01b039092169350919060ff1684565b60085460020361082b5760405162461bcd60e51b815260206004820152601f60248201527f5265656e7472616e63792047756172643a5265656e7472616e742063616c6c0060448201526064016103c1565b600260085547806108745760405162461bcd60e51b81526020600482015260136024820152724e6f2066756e647320746f2072656c6561736560681b60448201526064016103c1565b5f5b6005548110156109bb575f6005828154811061089457610894610f6d565b5f9182526020808320909101546007546001600160a01b0390911680845260069092526040832054919350906108ca9086610fc1565b6108d49190610fd8565b905080156109b1575f826001600160a01b0316826040515f6040518083038185875af1925050503d805f8114610925576040519150601f19603f3d011682016040523d82523d5f602084013e61092a565b606091505b505090508061096c5760405162461bcd60e51b815260206004820152600e60248201526d14185e5b595b9d0819985a5b195960921b60448201526064016103c1565b826001600160a01b03167fdf20fd1e76bc69d672e4814fafb2c449bba3a5369d8359adf9e05e6fde87b056836040516109a791815260200190565b60405180910390a2505b5050600101610876565b50506001600855565b335f9081526002602052604090205460ff166109de575f5ffd5b60035481106109ff5760405162461bcd60e51b81526004016103c190610f3d565b5f60038281548110610a1357610a13610f6d565b5f9182526020909120600490910201600381015490915060ff1615610a4a5760405162461bcd60e51b81526004016103c190610f81565b5f82815260046020908152604080832033845290915290205460ff16610ab25760405162461bcd60e51b815260206004820152601960248201527f5478206e6f7420617070726f7665642062792063616c6c65720000000000000060448201526064016103c1565b5f8281526004602090815260408083203384529091528120805460ff1916905560028201805460019290610ae7908490610f24565b909155505060405133815282907f4cd471041f6b9ff47536a54a3d3ab62d0fa9dd5e36c0418b294b1673acb31881906020016106ec565b5f3411610b625760405162461bcd60e51b81526020600482015260126024820152712232b132b99036b0b73230b91032ba3432b960711b60448201526064016103c1565b60405134815233907fe1fffcc4923d04b559f4d29a8bfc6cda04eb5b0d3c460751c2402c5c5cc9109c9060200160405180910390a2565b335f9081526002602052604090205460ff16610bb3575f5ffd5b600854600203610c055760405162461bcd60e51b815260206004820152601f60248201527f5265656e7472616e63792047756172643a5265656e7472616e742063616c6c0060448201526064016103c1565b60026008556003548110610c2b5760405162461bcd60e51b81526004016103c190610f3d565b5f60038281548110610c3f57610c3f610f6d565b905f5260205f209060040201905060015481600201541015610c9a5760405162461bcd60e51b81526020600482015260146024820152734e6f7420656e6f75676820617070726f76616c7360601b60448201526064016103c1565b600381015460ff1615610cbf5760405162461bcd60e51b81526004016103c190610f81565b4781600101541115610d0a5760405162461bcd60e51b8152602060048201526014602482015273496e73756666696369656e742062616c616e636560601b60448201526064016103c1565b60038101805460ff191660019081179091558154908201546040515f926001600160a01b031691908381818185875af1925050503d805f8114610d68576040519150601f19603f3d011682016040523d82523d5f602084013e610d6d565b606091505b5050905080610daa5760405162461bcd60e51b8152602060048201526009602482015268151e0819985a5b195960ba1b60448201526064016103c1565b815460018301546040519081526001600160a01b039091169084907fda19024f6708ce28e75d9c0ec389fb05a8e5cc9dfe520f61239c10d51a11e59c9060200160405180910390a35050600160085550565b5f60208284031215610e0c575f5ffd5b5035919050565b80356001600160a01b0381168114610e29575f5ffd5b919050565b5f5f60408385031215610e3f575f5ffd5b610e4883610e13565b946020939093013593505050565b5f60208284031215610e66575f5ffd5b610e6f82610e13565b9392505050565b602080825282518282018190525f918401906040840190835b81811015610edb57835180516001600160a01b03168452602080820151818601526040808301519086015260609182015115159185019190915290930192608090920191600101610e8f565b509095945050505050565b5f5f60408385031215610ef7575f5ffd5b82359150610f0760208401610e13565b90509250929050565b634e487b7160e01b5f52601160045260245ffd5b81810381811115610f3757610f37610f10565b92915050565b602080825260169082015275125b9d985b1a59081d1c985b9cd858dd1a5bdb88125160521b604082015260600190565b634e487b7160e01b5f52603260045260245ffd5b602080825260139082015272151e08185b1c9958591e48195e1958dd5d1959606a1b604082015260600190565b80820180821115610f3757610f37610f10565b8082028115828204841417610f3757610f37610f10565b5f82610ff257634e487b7160e01b5f52601260045260245ffd5b50049056fea26469706673582212207abc63bd6e194353dcd747d6e37c391d0c66c701cd68a78640985df9548872eb64736f6c634300081c0033",
  "linkReferences": {},
  "deployedLinkReferences": {},
  "immutableReferences": {},
  "inputSourceName": "project/contracts/Wallet.sol",
  "buildInfoId": "solc-0_8_28-1020edecf9331e3b362f31439682b59428324d87"
}